:1000000000802020574C0000871700008717000051
:1000100000000000000000000000000000000000E0
:100020000000000000000000000000008717000032
:100030000000000000000000871700008149000058
:1000400087170000593C0000871700008717000041
:100050008717000087170000871700008717000028
:100060000000000087170000871700000000000054
:1000700000000000871700008717000051140000DF
:1000800087170000871700008717000087170000F8
:100090008717000087170000000000000000000024
:1000A000AD0D0000871700000000000000000000F8
:1000B0008717000000000000871700008717000066
:1000C000F0B5FFB08EB00493069206469298029067
:1000D0000025E84305908C913468204604F057FDD4
:1000E00021188B9503918C4200D3BBE000208790B0
:1000F00087A908738890059889902F46049D2078D9
:10010000002800D1AFE0252805D0641C3460069992
:10011000A8477F1CF3E78B97601C306087AC2046B4
:10012000314600F0A7F88CAA2046314600F0BFF80F
:10013000306801787A2925D0682919D06A2908D031
:100140006C290ED0742908D04C2922D1879980229D
:100150001BE087990122D20217E0879901225203FE
:1001600013E0427887996C2A64D10122120205E0DB
:1001700042788799682A60D10122520211438791FF
:10018000801C05E08799012212030A438792401CD4
:100190000178441C346087A8017373291FD06E292D
:1001A00029D1879832490840202850D040283CD097
:1001B00001214A03904238D04A02904242D0CA02FA
:1001C000904205D00A0390422FD0090288422CD1D8
:1001D000F8178C9904C98C91176050603BE087A890
:1001E0000078400619D4009587A88CAA8BAB069995
:1001F00000F01DF92FE007AD87A98CAA284600F072
:100200006DF9024628460699029B9847411C059DB8
:1002100000D0C5198B9503991FE0009587A88CAA7B
:100220008BAB069900F09FF815E08C9802C88C9073
:100230000F6010E0401C402201E0401C20221143CE
:100240008791A5E78C9802C88C900F7003E08C987A
:1002500002C88C900F8003998B9D681C00D042E7E8
:10026000059F00E02F4638467FB00EB0F0BDC04677
:10027000603F000010B50A681378302B0FD0232B95
:1002800007D02B2B09D02D2B05D0202B0ED10423EA
:1002900006E0082304E0012302E0022300E010232B
:1002A00004681C430460521C0A60E5E710BDFEB5FB
:1002B00016460D460446086802782A2A10D130688E
:1002C000011D316000686060002805D54042606013
:1002D00020680121014321602868471C2F6017E036
:1002E0000021303A092A08D84218531C2B60435C7D
:1002F0006F467B545278491CF3E76A4600235354F7
:1003000012784718002A03D0684603F0AFFF6060F8
:1003100038782E2826D1781C286079782A2908D1A7
:100320003068011D31600068A0602868401C2860AA
:10033000FEBD00203039092908D839188A1C2A60E6
:100340004A786B461A548978401CF3E76A460021C4
:1003500011541078002804D0684603F087FFA0608D
:10036000FEBDA160FEBDF0B587B01E460C9F1368B0
:100370001C1D14601D68002D3BD0049106908468FC
:10038000002C04D4284604F0D5FB844203D328462D
:1003900004F0D0FB044606984068A042039000DCBD
:1003A000204601463068019140180296306005945D
:1003B0000398A0420EDD06980078C0070AD1059880
:1003C00001990E1A0024B44204DA20200499B84797
:1003D000641CF8E70026049C069805998E420BDA07
:1003E0002868010A19D12D1DC0B22146B847761CD4
:1003F000F2E70020B84718E00599039A8A4214DD15
:100400000078C00711D00198451A0024AC420CDADC
:1004100020200499B847641CF8E70020C0430299E3
:10042000086004F003FC5821016007B0F0BDF0B58E
:1004300085B00C4606460A9D1068011D11600068D3
:100440000490002844D00393B768002F04D4049884
:1004500004F09DFB874203D3049804F098FB074601
:1004600002967268BA42114600DC3946039B18684E
:100470000091401818600192BA420FDD029800788E
:10048000C0070BD10098C01B03900026039886423A
:1004900004DA20202146A847761CF7E70026BE4252
:1004A00005DA0498805D2146A847761CF7E7019895
:1004B000B84210DD02980078C0070CD00098C61B27
:1004C0000027B74207DA20202146A8477F1CF8E71B
:1004D00000202146A84705B0F0BDC046F0B589B060
:1004E00001920F460446FF210846FA302518786825
:1004F0000290002607960391FE31202220460092AA
:1005000004F030FB7F2080000694211808910495A8
:100510002E713D46387B0246613A172A2AD80123BC
:1005200093402C46B44D2B42254608D007A908AA73
:100530002846019B00F066F900260596B3E0712578
:100540002B42254622D1022A14D1019B1868021D94
:100550001A600068C2B2534253410593039AFC32B9
:10056000069B9A1808920870286802218843286020
:10057000002698E001464539032907D3252860D095
:10058000412803D058280596D0D08DE0019A1068F4
:10059000C11D0720814308460830106005C9D143BA
:1005A0002F7B4900490D0BD17B3F944911400143FA
:1005B000049C2CD01920C1438F4234D36E2033E0E9
:1005C000002A01D4114602E00121C9075140D60F8B
:1005D000002205923A46413A062A0BD9613F062F7E
:1005E00061D8C0467F443F797F00BF440B5C5C5CB0
:1005F0003B3631007A4412795200974403545454E4
:10060000332E290008AB2A4600F024FD4BE00023DE
:1006100011461A46059303F0CBF81921C9438F42BE
:1006200025D3662224E04E20E0708F4201D3612161
:1006300000E04121A170089460700020059002261E
:1006400031E0002006994870252008700120A1E0C3
:1006500008AB2A4600F00EFE25E008AB2A4603F060
:10066000A3FA20E008AB2A4601F0DCF91BE04622A1
:10067000E2708F4201D36E2200E04E22A2708F42C0
:1006800001D3692100E0492161703F21C900069A28
:1006900051180891002803D02D202070042602E074
:1006A0002B2020700326287B012701466F3909295A
:1006B00004D801228A4052490A4201D158286BD1FC
:1006C000049B029C04972946069F3D1908980C46F6
:1006D0000978C90707D1191D091A62689142069F56
:1006E00001DC691A4F1C411C039843000026384660
:1006F000324604F0E9F808900599002903D0411C1E
:100700000891067000E00146A94206D8481E691A01
:10071000491C202204F026FA2E702078C00605D449
:100720000698391A202204F01DFA2EE00698874216
:100730002BD00698391A3026324604F013FA07985F
:100740004142414104980140012905D120784007E8
:1007500002D43846069905E03878069A511C107084
:10076000781C3E70227B412A0CD0582A05D0612A81
:1007700008D0782A01D0702A07D123781B0701D42A
:10078000612A02D142784A704670069804F0FFF957
:100790000599401809B0F0BD002E09D0012E049B28
:1007A000029C8FD10120079029680220084007E0B1
:1007B000079A296802200840002A09D0049B029C5D
:1007C00008994A1E08922D220A704742474179E74C
:1007D0000028049B029C08D1480700D472E70898BF
:1007E000411E0891009901706CE70898411E08911C
:1007F0002B210170002765E708C19000FFFF0F0063
:1008000043020000F8B514460F46054680680028EC
:1008100004D4286810218843286001E00120A860E2
:10082000287B1026582808D0782806D0702804D0B5
:100830006F2801D1082600E00A262846194600F054
:1008400055F8AA68002A09D102460A4306D1287839
:10085000000749D52B7B0020024612E02B7B642B3E
:1008600003D1642300290BD504E0692B08D10029AA
:1008700006D5692301223A60002240428A4100E005
:100880000A4600941146324600F0B0F8A968884242
:1008900006DA401C21684A1E226030220A70F5E701
:1008A000287B582803D0782801D070280FD12978C8
:1008B00009070CD5702800D1782021684A1E2260D3
:1008C00008702068411E216030210170287B6F284C
:1008D0000AD12878000707D520684178302903D04D
:1008E000411E216030210170F8BDC04610B5037B68
:1008F000702B05D10868021D0A60006800226FE0B5
:100900000068384A024001204403A24222D0402A13
:1009100020D00402A24230D04402A24246D0C402F7
:10092000A2422AD00403A24214D0202A12D10022CB
:100930001C46643C142C06D8A0402B4C204204D109
:10094000212420423ED1582B49D10868031D0B6059
:10095000008845E000221C46643C142C06D8A040C8
:10096000214C204204D1212420422BD1582B36D1B6
:100970000868031D0B60006832E01A46643A142AC6
:1009800006D89040184A104206D12122104203D1C5
:100990000020582B024623D10868C21D072082433D
:1009A0001046083008601068526819E000221C46A2
:1009B000643C142C0CD8A0400B4C20420AD12124BA
:1009C000204205D00868021D0A600068C21707E0CF
:1009D000582B04D10868031D0B60007800E0104616
:1009E000114610BD603F000000081200FEB50192E4
:1009F0000D460646582B01D0174800E015480090D8
:100A0000089802903046284305D1029A1068411E8A
:100A1000116030210170019C3046284313D03046CC
:100A20002946224600F01AF807460D46224603F0F2
:100A300027FF301A0099085C029B19684A1E1A6049
:100A400008703E46E8E70298006804F0A0F8401EEF
:100A5000FEBDC046704E0000814E000080B5102AD9
:100A600006D0082A09D1C0084A078018C90880BDE5
:100A700000090A078018090980BD002904D1114620
:100A800003F0D4FB002180BD002304F001F880BDF9
:100A9000F0B595B0BB4CA068002800D193E0A078D9
:100AA000002800D18FE06168B74F3846E03000255C
:100AB0002A462B4601F022FF109003F0CBFC1421B4
:100AC0000E1A119014301290B0498A7A887ECB8821
:100AD0001BB21493C98A09B21391002A00D195E080
:100AE000002800D192E030B20F9003F0FFFB0146E6
:100AF000384604F0AEF8149803F0F8FB01460026DF
:100B000038463246334601F0F9FE03F0A3FC0146B5
:100B10009F48814200DC01467D20C500A94200DBE0
:100B2000294630460E9103F08FFF129800B21290C2
:100B300003F0DCFB01467037384604F08AF813985E
:100B400003F0D4FB014638463246334601F0D6FE68
:100B500003F080FC07468E48874200DC0746AF4220
:100B600000DB2F460120394603F06EFF04F032F817
:100B700088490A68821A642A00D200E10860606825
:100B8000A1680B9121780D9161780C91834902F055
:100B9000B7F90446014603F06FFF0028304600D045
:100BA000B6E07F49204602F053FE00287A4800D084
:100BB000AEE0C7200106204602F02CFE002800D13E
:100BC000A3E07848A4E003F04BFF04F003F8714978
:100BD0000A68821A642A00D2D1E008606068A168BD
:100BE0001491257864786D4902F08AF90746014628
:100BF00003F042FF0026002830463FD168493846BE
:100C000002F026FE00282DD0634837E003F028FFCD
:100C100003F0E0FF5F490A68821A642A00D2AEE05E
:100C200008606068A1680F9121780E9161780D913C
:100C30005A4902F065F90446014603F01DFF0028F9
:100C40002F462ED15649204602F002FE0028524F70
:100C500027D1C7200106204602F0DCFD00281CD069
:100C6000504F1EE0C7200106384602F0D3FD002891
:100C700001D04C4802E0384603F0ECFB0896099698
:100C800000940190029603960496059606960796A0
:100C900045493046149A2B466FE0204603F0DAFBB4
:100CA00007463E49109802F02BF90446014603F02E
:100CB000E3FE0028284612D13949204602F0C8FD3B
:100CC000002835480BD1C7200106204602F0A2FDBE
:100CD000002801D0334802E0204603F0BBFB31B2CC
:100CE000129A12B2139B089309950D9B00930197DA
:100CF000029011980390049114980590069507921C
:100D0000294928460F9A0E9B37E0204603F0A2FBA4
:100D100005462249109802F0F3F80446014603F014
:100D2000ABFE002813D11E49204602F091FD002899
:100D3000194E0CD1C7200106204602F06BFD002899
:100D400001D0184E03E0204603F084FB06460E98BF
:100D500000B239B2139A089209910C9900AA62C2A2
:100D6000119903910F990491149905910690129885
:100D700007900D4900200B9A0D9B02F079F815B0F1
:100D8000F0BDC04668092020000420202009202052
:100D900018FCFFFF84092020FF7F00000000C842EC
:100DA00000FEFF460080FFFFF84D0000F0B581B067
:100DB0009A4908460838026899480378042B00D1FC
:100DC00016E1D2B2521E0A2A00D911E15200C046E1
:100DD0007A449288520097447700E3000C000D019A
:100DE0000B010B010B010A000B010B010A0004218E
:100DF000FDE08C480168090700D1F9E08A490A88BA
:100E00008A4909680446203C2568894B1E88964219
:100E100003D21E88771C1F808D5505682D0700D1D1
:100E2000E6E025681E88964203D21E88771C1F8044
:100E30008D5505682D0700D1DAE025681E88964299
:100E400003D21E88771C1F808D5505682D0700D1A1
:100E5000CEE025681E88964203D21E88771C1F802C
:100E60008D5505682D0700D1C2E025681E88964281
:100E700003D21E88771C1F808D5505682D0700D171
:100E8000B6E025681E88964203D21E88771C1F8014
:100E90008D5505682D0700D1AAE025681E88964269
:100EA00003D21E88771C1F808D5505682D0700D141
:100EB0009EE024681D88954203D21A88551C1D8027
:100EC0008C54006801B0F0BD56490A68120700D181
:100ED0008CE0554A1388554A126800920D46203D11
:100EE0002E68534C27889F4204D227887A1C228080
:100EF000009AD6550A68120778D02E6822889A423E
:100F000004D22288571C2780009FBE540A6812070B
:100F10006CD02E6822889A4204D22288571C2780DF
:100F2000009FBE540A68120760D02E6822889A4239
:100F300004D22288571C2780009FBE540A681207DB
:100F400054D02E6822889A4204D22288571C2780C7
:100F5000009FBE540A68120748D02E6822889A4221
:100F600004D22288571C2780009FBE540A681207AB
:100F70003CD02E6822889A4204D22288571C2780AF
:100F8000009FBE540A68120730D02D6822889A420A
:100F900004D22288531C2380009B9D54096825E0BD
:100FA0000A6808239A430A602249097801291DD159
:100FB0001F4900220A80022101701F4800781A4947
:100FC0004200184803462C3B1C681C4D2540AA18BB
:100FD000521C1A60098828380268194B1340090509
:100FE0000909C918C91D016001B0F0BD03210170D4
:100FF00001B0F0BD134C2188134800888142F7D21C
:101000002188124A51182288801A82B2104802F0B0
:10101000E9FC21880818208001B0F0BD28100F409D
:10102000941320203C120F409A0920209009202080
:1010300098092020A5092020A409202000F8FFFFFE
:10104000F0FF00F09C0920209E092020400920206C
:1010500000000F40F0B5A5B0049308920E46074675
:1010600000240A947E4D22462B4602F0B5FB002850
:1010700013D100247B4D3846314622462B4602F0E0
:10108000A1FB002809D1002238463146134602F060
:1010900085FB00283C46354607D10AAA204629464A
:1010A00002F0D0FC0A98401E0A900899087B0BAE0B
:1010B000412801D06D4800E06B4809908868019094
:1010C00030200390307000220792204629461346B4
:1010D00002F06EFB01210028029101D0C8074540B3
:1010E000771C20462946079A134602F057FB002832
:1010F0000DD124AA2046294602F0A4FC24980121FF
:101100000A1A2046294601F04DFA04460D462046AB
:10111000294602F007FF06463946059702F018FDFA
:101120000690304603F0D0FA03F065FD04460D4604
:101130000198471C20D3059806994618002220469E
:101140002946134602F02AFB002848D100222046F7
:101150002946474B01F068F804460D4602F0E2FECE
:101160000999095C771C317003F0AEFA03F043FD76
:1011700004460D463E46E1E70BA806994618002FA7
:1011800016D07F1E002220462946394B01F04CF82C
:1011900004460D4602F0C6FE0999095C3246761CEB
:1011A000517003F091FA03F026FD04460D46E6E780
:1011B0003178099C204603F07FFC001B08280EDBD9
:1011C0000196741E089D079F099E2178304603F002
:1011D00073FC801B0E2805DD2770641EF5E7089D53
:1011E000079F04E00999081840782070019E377025
:1011F0000A98297B4129049C01D0702100E05021EC
:10120000069E059F224602F0A3FDAA68501C04D149
:10121000384603F0BCFC421EAA60384631462346DD
:1012200003F022FAA8680028029A02D12868000771
:10123000C20F38463146234602F0E6F9287B4128A2
:1012400001D0782000E0582021684A1E22600870F2
:101250002068411E21600399017025B0F0BDC04691
:101260000000F07F0000F0FF704E0000814E000093
:1012700000003040F0B5A3B003930F46044604923B
:101280009168002903D0002904D5062100E001213E
:101290000498816007910AA8302108910170002507
:1012A000204639462A462B4602F082FA01210028C0
:1012B000059101D0C8074740624E20463946604A32
:1012C000334602F093FA002809D00022204639461E
:1012D0005E4B00F0C1FC04460F466D1CEDE75A4E14
:1012E0000022204639460992134602F057FA002898
:1012F00011D1002220463946334602F059FA00281F
:1013000009D0002220463946504B00F08DFF04469C
:101310000F466D1EE4E702950AA8451C2046394693
:1013200002F000FE0695294602F012FC0799884259
:10133000019004DD481C0AA90A18085C1FE0C94393
:101340000E180AA90D18681C07902046394602F0AD
:10135000E9FD03F0B9F902460B462046394600F094
:1013600049F90022394B00F05FFF04460F4602F0B6
:10137000D9FD079A30306870761C1546E3D3C0B2A9
:101380003528039E049F029B099D0FD31446501ECF
:101390000178491CCAB201703A2A03D33021017086
:1013A000401EF5E70AA98842224640D00198C41899
:1013B00015700220C043844202DBB868844207DD16
:1013C000601E397B891EC9B2324602F0C1FC01247D
:1013D000069803F0DCFB401E0599A0421ADB0028AA
:1013E000089A01D4069A125C1346303B5D1EAB414D
:1013F000C9431943C90705D13978090702D4002523
:10140000059905E031684B1E33600A700125002103
:10141000401EE2E73868082202402A43501E8241FB
:1014200006982146334602F0EFF823B0F0BD501E77
:10143000002101700198C018441C0AA80690B8E762
:101440000000C0FFFFFFDF410000F03F000024402C
:10145000F0B581B05E4C204608380068C0B2401E2E
:1014600011282DD878440079400087446308080883
:101470000829292929292B552929298A2908554D3F
:1014800028680226F74338402860E8684024201A7C
:1014900082B25148514901F097FA286838402860D3
:1014A0004F4868604D48A860EC6028683043286069
:1014B0004C48002101804C480068002800D080473B
:1014C00001B0F0BD464E4748008800900021424CD4
:1014D0000F4635461C3D2868400773D43068C1B2BA
:1014E000204601F07BFC00286CD02868400768D4B7
:1014F0003068C1B2204601F071FC002861D0286834
:10150000400707D43068C1B2204601F067FCF91CDF
:101510000028DDD1BF1C55E001F086F9344802F007
:1015200063FE0028CCD120680121C90288432060D5
:1015300001B0F0BD274D28680226F74338402860E7
:10154000E8684024201A82B22348244901F03CFA7A
:10155000296839402960224969602049A960EC6006
:101560002968314329601F490A88101808800888B3
:1015700000220A800028A3D01C49096800291DD137
:101580009EE71548154C402521462A4601F01CFAD5
:1015900010490A6802239A430A60114A4A608C6023
:1015A000CD600A681A430A600E4900220A800104CD
:1015B00086D00E490968002982D080B2884701B0E0
:1015C000F0BD7F1C009838180649088001B0F0BDB6
:1015D0002890104000B2424050092020800820206E
:1015E00024911040A00920207C132020801320206B
:1015F0005C092020FCB40124E407634002E0FCB451
:101600000124E40708B41D03ED08D60D3543560246
:101610005F007F0D06D12C00344300D0AEE001B056
:10162000FCBC7047A408254307242402FF34A742CA
:1016300005D10020190D090501B0FCBC7047002B35
:1016400003D50024A61BAC4125000B03DB08C20D0B
:10165000134342024800400D07D11C00144300D040
:101660008CE00EBC1000F0BC7047012464072343DB
:1016700007242402FF34A04205D10020090D0905EA
:1016800001B0FCBC7047002903D50024A21A9C417C
:101690002300C11B08D51C002B00250014003200BC
:1016A00026000024611A3800362925D502B43939BC
:1016B00049420C00203C03D22F008F40374301E009
:1016C0003700A740002F01D040210E4302BC202943
:1016D0000BD500290ED04C42203420B4A5402C005C
:1016E00020BC0D41CE40361904E000292E000D41EA
:1016F00020390E4192196B411C0014433ED0002446
:10170000002B04D5012400218A1A99410B00401EA8
:1017100052005B41FBD50121890215000D400CD020
:10172000521800277B4101D3401C0BE00721C9015F
:1017300015000D4001D189008A43072109028A431F
:1017400052005B41801C19DD07210902FF318842EC
:1017500009D30EBC0020C90F0902FF31C900C91D01
:101760000905F0BC7047190B00050143E40721434C
:101770001805120B104301B0FCBC7047002100207B
:1017800001B0FCBC7047FEE7F0B583B0504A10686A
:10179000012102910B0503405842584113681C0D6A
:1017A000022323401468250D04242C4015682D0DB8
:1017B00008262E4015682D0D10272F4015682D0D79
:1017C000202129401B199B19DB19591809183E23A0
:1017D0004B40DCB21168090D40250D401168C90E5F
:1017E000C9014F191F433F21CE437E40F2B29907F2
:1017F000C90F08185907C90F40181907C90F401811
:10180000D906C90F4018610940187306D90FD209CB
:1018100080184018C4B22F4A16705070601E2146BE
:101820008141917002990020052C00D80146D170A9
:10183000002C46D0029301213046019108404042DD
:10184000254D05402549284600F01DFFB10700D56C
:10185000054603208107284600F015FF710700D5D3
:1018600005461F49284600F00EFF310700D5054602
:101870007F20C105284600F006FFF10600D5054689
:1018800001988107284600F0FEFEB10600D5054606
:101890007EB21449284600F0F6FE0299002900D5D0
:1018A00005468120C105284600F0EDFE002E00D43B
:1018B0000546204602F034FF0146284601F0ACFB05
:1018C000044A50609068401C906003B0F0BDC04670
:1018D00080330A4068092020000080C0000040C01A
:1018E000000080BF00004040F0B587B01D4616469E
:1018F0003024059004700027104619463A463B46AE
:1019000001F056FF0028019402D00120C007454095
:101910000D9804900C9803903F4C304629463D4A60
:10192000234601F063FF002809D0002230462946F3
:101930003B4B00F091F906460D467F1CEDE70598FC
:10194000441C0022304629460692134601F026FF29
:10195000002811D1002230462946304B01F028FFE3
:10196000002809D00022304629462D4B00F05CFCAF
:1019700006460D467F1EE4E70398C01903903046E3
:10198000294602F0CFFA214602F0E2F80294241828
:10199000C019049908600398471C012F1ADB3046D0
:1019A000294602F0BFFA02F08FFE02460B4630468F
:1019B0002946FFF71FFE0022194B00F035FC0646B2
:1019C0000D4602F0AFFA3030611C20707F1E0C46CD
:1019D000E5D100E02146481E0278352A0DD3891E44
:1019E000019C0A78521CD3B20A703A2B02D30C70B5
:1019F000491EF6E7059A914204D0069901700298B3
:101A000007B0F0BD0699017004990868401C086091
:101A10000598F5E70000C0FFFFFFDF410000F03F41
:101A200000002440F0B5A1B004930546906800285A
:101A300001D5062090600290039200243D4F284675
:101A4000224606913B4601F0C7FE0699002826462D
:101A500014D10026384F284632463B4601F0B2FEEC
:101A6000069900280AD1002228460592134601F063
:101A700095FE069B00282E461F4622D12F4D03F0CF
:101A8000C7F801F095FE002809D0002230463946FB
:101A90002B4B00F0C9FB06460F46641EEFE7284DAE
:101AA00003F0B6F801F098FE002807D003F0B0F874
:101AB00000F0D2F806460F46641CF1E735463B4677
:101AC000059407A802990091019008A82A46FFF7FB
:101AD0000BFF0446079D022D0DD1059D6D1C204670
:101AE00003F055F82018401E0021017028460125FA
:101AF000049E039F02E0049E039F0598397B3246B3
:101B000002F026F9BA6820462946334602F0ACFDB9
:101B1000204603F03CF8854203D138680007C20F25
:101B200000E0012220462946334601F06DFD21B038
:101B3000F0BDC0460000F07F0000F0FF0000F03F65
:101B400000002440FEB5002905D03D4C0027072C9D
:101B500003D83E4603E000276FE02646083E8E424B
:101B60006BD30197431E08221842074600D0174640
:101B7000072800D81746C81D02900725314800687D
:101B800080473148017800290BD10121092C01D26D
:101B9000002203E02D4A0023936016602C4B1A604C
:101BA00001700298A8430290781E7942284C25685B
:101BB000002D34D02C46083406190E40B44210D003
:101BC0002A4610323346083B9A4201D9F619F9E702
:101BD0002A6801239A43A218029BF3189A42E6D37B
:101BE00006E02A6801239A43029B9A42DFDB2646DD
:101BF000284602F0D3FEA64216D0301B08382968CA
:101C00000122D3431940091A286018402F181143A4
:101C10000839B9600837284602F096FD05E00D48FE
:101C200000688047019F08E02F463846029901F07E
:101C300083FD08480068804708373846FEBDC04627
:101C4000000800007013202098132020A8092020ED
:101C50009409202074132020FCB40C005C40E40F95
:101C6000E40710B41D032D0B56006D415F007F0D7E
:101C700073D001246405254307242402FF34A742BE
:101C800061D00B031B0B42005B414800400D64D048
:101C900001246405234307242402FF34A04252D0C8
:101CA000C01B002100273624AB4200D1B24204D32E
:101CB0007F414941921BAB4101E07F414941641E94
:101CC00006D0002B01D1002A02D052005B41EBE785
:101CD000202C07D2162C0AD33900A7402026361B09
:101CE000F1400BE0203C3900A140002706E0A14074
:101CF0002026361B3D00F5402943A74001246405FA
:101D0000214202D17F004941401E00247F1C6141D5
:101D10000124A405214202D0401CA14301E0640833
:101D2000A14303242402FF34001916DD2419A04224
:101D300009D8CC074908000501437808204310BCA6
:101D40002143FCBC704702BC0020C90F0902FF21DF
:101D5000C900C91D0905FCBC70470021002001B065
:101D6000FCBC7047F0B5394A8218394BC0183A4D5F
:101D70004C790B79002C22D0466F202B02D0052401
:101D8000E70100E0354F2E40002B00D188273E436D
:101D90004667846F2C403C438467446B2D4E34402F
:101DA0004463846B344084630024446584655468D0
:101DB0008F26F643344054609468344094600C6835
:101DC0008979202B09D006467036002B15D1641E68
:101DD0004460C46E2C40882715E0641E4460C46EC5
:101DE0002C401E4E3443C466046F2C4034430467B9
:101DF0001B4D01246707064607E00527FF0164081D
:101E00004460C46E2C403C43C46634682C403C4360
:101E10003460C46A0F4D2C40C462046B2C400463D0
:101E20000024C4640465C46F8F25ED432C40C4674F
:101E300014682C401460194302680A4B1340BD22F9
:101E40000A40D118891C0160F0BDC046841800000A
:101E5000041800008888FDFF24493E0001040000AA
:101E6000FFFFFFCF4000FFCF10B53449002048628C
:101E7000886285228A65324840230360CA658022D1
:101E80000260304A0A600B680B604A604A684A6028
:101E90000A6801235B061A430A604A681A434A60CB
:101EA00082220A65284A4A65284A294BD361D369A8
:101EB000D36181230B664B668B66CB668B67254BA4
:101EC000CB67CC6FCC671360146814600B670C6F22
:101ED0000C674B674C6F4C67D363D16BD163136452
:101EE000116C11645364516C51649364916C9164EE
:101EF000D364D16CD164D365D16DD1651366116E95
:101F000011665366516E5166014630394F221202F6
:101F10000A60026010480168CF2212060A4302607C
:101F2000016903220A4302610C48016A1B22120361
:101F30001143016201681143016010BD04804240F9
:101F4000D0320A4083000C008200040084804240AA
:101F500081000D0081000E0090330A4028300A40B5
:101F6000F0B585B00F4606460024E54338480068C2
:101F70008047384601F0AEFB002863D0B86803976D
:101F8000F968325D641C002AFBD10095039D6A69E3
:101F9000072302931A40671E042A01970CD10024DC
:101FA000002F47D0286831193A4602F0F5FB002887
:101FB00042D404193F1AF3E70B1A3C46002C39D0DF
:101FC0009C42274600D31F466969029A11400229A4
:101FD000049311D1002B07D00021725C0A2A06D08D
:101FE000491C8F42F9D107E000252F4605E0721801
:101FF00002D04F1C012500E0002531463A4602F090
:1020000019FE03998868C0198860F619E41B002D31
:102010000D46049B01D1DB1BD0D1284601F06FFE99
:10202000002809D1A868E9680B1A696920220A43C7
:102030006A61C3E7019D05E06869012189020143E6
:102040006961009D034800688047284605B0F0BDDF
:102050007013202074132020F0B583B0334C01217D
:102060002046009102F0D3FB254610350027284674
:10207000394602F0CCFB02A901AA384602F070F8FA
:10208000002806D102A8017801A80278274801F0AB
:1020900005F827490F602068264E3060A088B08080
:1020A000A0793072E0797072E068F060F068002822
:1020B000384606D0307A0328384602D030680860A7
:1020C00000981D490870F780B772012702A901AA7C
:1020D000384602F045F8002806D102A8017801A888
:1020E0000278284600F0DAFF0021114A5160206989
:1020F0003061A08AB082A07D3076E07D7076E069A4
:10210000F061F0690028084606D0307E03280846B2
:1021100002D0306950603846074A5070F182B1767B
:10212000064801F0CFFB03B0F0BDC04600092020F7
:102130007409202020092020A20920202539000030
:10214000F8B5002867D00446334800688047083C4B
:10215000324E002231461546306801270246BA4306
:10216000B6180836A1420A46F4D32D4B2B4A072B4A
:1021700001D99A18083A964200D90026A14247D1BF
:10218000C00745D0002D0AD029683940284600D024
:102190000020002E06D100292AD100260BE0002EB7
:1021A00026D000203178C907314600D00021002810
:1021B0000BD00E460546284602F0F0FB002E08D153
:1021C00002F0C8FC801808300FE0002500292F46D7
:1021D0000ED0304602F0E2FB002F0DD002F0BAFC28
:1021E00033680B408018C018103028602C460CE073
:1021F00020680121884307E020680121C943084085
:1022000032680A40801808302060204602F09CFAAC
:10221000044800688047F8BD70132020A8092020DA
:102220000008000074132020FCB50C005C40E40F93
:10223000E40710B4DD02540D2543D6025F007F0D84
:1022400060D00124E407254307242402FF34A74279
:1022500050D0CB02440D2343C2024800400D51D060
:102260000124E407234307242402FF34A04241D081
:10227000C01901B41800290002F0CEF80F0001B413
:102280001800310002F0C8F803000C001000310003
:1022900002F0C2F806001000290002F0BDF80500A7
:1022A0007618002202BC01BC55415141A419554188
:1022B00051418024A4005B195141FF18514100D5C0
:1022C00064003F19514102D47F00494100E0401CA5
:1022D00003242402FF34001B14DD2419A04209D872
:1022E0000305F80A4C0520434900090B194310BCAB
:1022F0002143FCBD0020FF21C900C91D090510BCF8
:102300002143FCBD0021002001B0FCBDF0B585B02B
:102310001E4614460391054600200490C7432F48EB
:10232000006880472868401C4BD00294042C324639
:1023300001D0002A45D001972B1D68686F690028DD
:102340000ED0390705D5401E0093FFF7F9FE009B1C
:102350003246082087430498186058609860D86017
:102360000120029C012C00D8044607218F432743FB
:102370006F61FF2A164600D906020398002804D090
:10238000012A02D0401C18600CE0761C30461C4626
:1023900002F026FC2060002819D0401C686008214B
:1023A0000F436F618119491EA860E96028610C48DC
:1023B000006880470948006880470A480A49016068
:1023C000049F074800688047384605B0F0BD0120EB
:1023D000800207436F61019FF3E7C046701320201E
:1023E000741320206013202035450000F0B584B020
:1023F0003049314A0125AC0316682B0203939E43F2
:1024000016600E68264205D10E68264202D10E687B
:102410002642F6D06C02467E9769AF432E40BD1926
:1024200095612025455DD6690327BE433D4075195A
:10243000D561224D2E680727374005262E60466A53
:1024400033681362736853622F60C3695B065B0C69
:10245000D5697F263602B543EB18D361E8C80097EB
:1024600007680197476802971B071B0B2D03ADB246
:10247000ED1833071B0D007A009E35431D43019B69
:102480001D43029B1D43054390690D4B03400D48BE
:102490002840C01890611068039B184310600868BA
:1024A000204205D10868204202D108682042F6D0B7
:1024B00004B0F0BD04020B4008010B400013404083
:1024C0008D00F0FF72FF0F00F0B589B02748009033
:1024D000274801902748029000250395264804903C
:1024E00026480590264F0697264E07960895264CB7
:1024F0006946204601F0DAFB244800901C48019010
:102500001C48029003951C4804901C4805900697AF
:102510000796089520467030694601F0C7FB1C48B5
:1025200000900195029503951A4804901A48059069
:1025300006950120C607079608952046E0306946B3
:1025400001F0B4FB15480090019502950395812098
:10255000C0050490124805A961C108951520000125
:102560002018694601F0A2FB09B0F0BD000022422C
:10257000CDCC4C3F8FC2F53C00007A4400007AC4B9
:1025800000001644000016C4000420200000204271
:1025900017B7513A00009041000090C16F12033903
:1025A000000080C0F8B515462A4E0A0D771C3A4047
:1025B000294B9A4213D00C46002A18D10122D20787
:1025C0009443044344D00022244BFFF72DFE0C46D5
:1025D00023498D4208DC234A234B214636E002463C
:1025E0000B46FFF70CF8F8BD220D3A40363A511968
:1025F000B1420ADD02F01AFB222101600120C0076E
:1026000004401D4821180020F8BD012904DB174AA9
:10261000144009052143F8BD3522D24391420CDC18
:1026200002F004FB2221016012488542E6DA012013
:10263000C007044000202146F8BD0C4A144009059B
:102640001B225205891821430022094BFFF7ECFD9C
:10265000F8BDC046FE070000FF0700000000504321
:10266000AF3CFFFF59F3F8C21F6EA501FFFF0F80BB
:102670000000903C51C300000000F07FFCB4012733
:10268000FF07794002E0FCB40127FF070C024D0070
:102690002D0E03D1002C52D1FCBC70473C43FF2DC2
:1026A00050D0A408002900D56442020243001B0E4A
:1026B00004D1002A43D10800FCBC70473A43FF2BE9
:1026C00041D09208002800D552425E1B04D5170065
:1026D00022003C0076422B00192E06D527003741F8
:1026E000D2191C27F71B7F42BC40002A27D002D5F5
:1026F0005242012700E00027013B5200FCD51500A3
:10270000802635400FD01500202635402C438032DE
:1027100008D21500402635402C4304D1012636024C
:10272000B24300E05B1C5200023308DDFF2B0BD2EA
:10273000500ADB051843FF073843FCBC70470020F4
:10274000FCBC70470800C70FFF07FF20C0053843D7
:10275000FCBC704770B5002822D00446C07E00281B
:1027600020D02F4881420D4600DC05467D20C00068
:10277000854200DB0546002925D0207F012901DBA9
:10278000002803D000293AD5002838D028B2C01339
:1027900029464140091AA068224A8018012618E0FB
:1027A000002070BDA068E168952252018150206927
:1027B0006169815020790025294601F069FC0028D3
:1027C00017D0032618E0A068952149014018002180
:1027D0000E46E26802602069626995235B01C2507F
:1027E000207989B201F054FC002803D0002503268B
:1027F00002E02E4625830125A676284670BD28B224
:10280000C01329464140091AA068E26895235B017C
:10281000C25020696269034BC2500226E0E7C046FD
:1028200018FCFFFF9012000010B582B0314C2068F8
:1028300000065CD4304801A900F0DCF9012856D12B
:1028400001A80078A0612068000650D42A4801A998
:1028500000F0D0F901284AD101A80078A0612068D1
:10286000000644D4244801A900F0C4F901283ED14F
:1028700001A80078A0612068000638D41E4801A98C
:1028800000F0B8F9012832D101A80078A0612068D1
:1028900000062CD4184801A900F0ACF9012826D173
:1028A00001A80078A0612068000620D4124801A980
:1028B00000F0A0F901281AD101A80078A0612068D1
:1028C000000614D40C4801A900F094F901280ED197
:1028D00001A80078A0612068000608D4064801A974
:1028E00000F088F9012802D101A80078A06102B0A7
:1028F00010BDC046089110405C092020F0B587B09B
:10290000069305920546406E0491FFF7B7FE044614
:10291000296C0291FFF7B2FE0190696B2046FFF728
:10292000B2FE07466863EE6D314600F091FF002865
:1029300006D12E6E3846314600F06CFF002801D0DB
:102940006E633746A96C0394204600F0D9FA04461A
:10295000E86C394600F0D4FA2146FFF794FE0646AB
:102960002F6D0021384600F04BFF002809D1019857
:10297000394600F0C5FA0146A8633046FFF783FEEA
:1029800006466F6D3046394600F062FF002808D1D8
:10299000AC6D3046214600F03DFF0028374600D0A0
:1029A00027466820285C002800D0EF6E0498E86372
:1029B00003982864029868640598A8620698E862FB
:1029C0002F63384607B0F0BDF0B583B00192029195
:1029D0000446002804D12A482A494F2201F09EFBD0
:1029E0000825605F676839044A0C790C012691421A
:1029F000009601D0022302E03B0C7B40334087B2BB
:102A0000002B08D0012B3B4605D0914201D98B1AEF
:102A100001E0CB199B1A9AB2974201D100272CE012
:102A2000FA1A97B2019A974200D31746421A2068C1
:102A30004018BA4207DD02993A4602F0FBF8606896
:102A4000410C791814E0029E314602F0F3F803CCF1
:102A5000083C625F490C521AB118BA1A02F0EAF83F
:102A600061680098000448402289490CBA1A51183C
:102A70004904054A024088186060384603B0F0BD3A
:102A8000A24E00001E4E0000FFFF010010B501F035
:102A90002DFF2849CA68002A02D00A7A032A14D1D5
:102AA000254B00221A701346CA808B72CA69002A0D
:102AB00002D00A7E032A1CD11F4B00225A701346F3
:102AC000CA828B7602F026F810BD1B4A14780B6878
:102AD000002C22D0194C22689A1A0B682360184BDC
:102AE0009A4200DC1A46174B9A4200DB1A46012331
:102AF000DAE7114A54780B69002C14D00F4C626845
:102B00009A1A0B6963600E4B9A4200DC1A460D4B11
:102B10009A4200DB1A460123D2E7084C23600123C6
:102B200013700022BFE7054C63600123537000223D
:102B3000C5E7C04620092020A209202074092020D2
:102B40000080FFFFFF7F000070B51D481D49012573
:102B50006C02224601F026FB1B481C49224601F06C
:102B600021FB1B49002008801A4A11680F231B0211
:102B70000B43136018490B68EC02A3430B60174B1F
:102B80001C680226B4431C6018325A60144A9A60CA
:102B90004022DA601A6832431A600A68114B134304
:102BA0000B6011490A68FF231B069A43AB07D21832
:102BB0000A60E9030D4A11600D4A116070BDC046FC
:102BC0005C09202000022020500920200000202045
:102BD000A00920200C9110402890104000B24240E3
:102BE000800820201F8002000CE400E080E200E06A
:102BF00000E100E070B50D460446002805D12248EA
:102C000022494922920001F089FA66683004410C99
:102C1000720C01208A4209D00223002B0BD0012B19
:102C20000BD10822A25E002A0CD12AE0330C73409B
:102C30000340002BF3D1184670BD8A421BD9521AAB
:102C4000002A1ED0124B134A2668715C29706168F5
:102C50004D081D400823E35E5B1EAB4204D11140CA
:102C600001224A40626070BD8B1C0B4D1D400A4022
:102C70002A43626070BD0823E35E521AD218002A0C
:102C8000E0D1002070BDC046A24E00001E4E0000E4
:102C9000FF7F00000100FFFFFEFF0000F0B58B4248
:102CA00000D1824204D90B0002000021002040E044
:102CB000002B00D1002A0CD10B00020000210020C3
:102CC000002B00D1002A01D0C943C04300F0E5F930
:102CD0002FE01C0015000B0002000CB400212600A0
:102CE0002F00FF19764102D2491C4029F9D100205A
:102CF0001E001700FF19764102D2401C4028F9D16E
:102D00000E1A21002800320001F000FE0C00050020
:102D10000CBC00200021A34200D1AA4201D3521BC7
:102D2000A341404149416D08E7073D436408761ED1
:102D3000F1D5059F002F01D03A607B60F0BD704750
:102D400010B51F491F4C204601F0C0FE1E49204609
:102D500001F00EF91D4801680322D203914301607E
:102D600001691B4A0A401532026141692D220A435A
:102D700012218A434261426801210A4043688B4321
:102D80009A184260134A1368134C1C4314608B0258
:102D9000136302684B0413430360C2687023134338
:102DA000C360C2680223134305229343C360C26811
:102DB0000F231B021343C36002680A43026010BD65
:102DC0003E4E000000801040BC4E000000911040BC
:102DD0000000FFFF289010401F880200F0B581B06E
:102DE00000910446002804D11D481E49EE2201F03E
:102DF00095F90822606801044E0C430C0121B3428E
:102E000001D0022702E0070C47400F40A55E0020DA
:102E1000002F04D0012F1BD0B3421BD99F1BAF4200
:102E200016D0114D2068009EC6546068430CA25E07
:102E3000521E9A4204D1284001221204424005E069
:102E40000A4A0240AA1828401018421C626008462C
:102E500001B0F0BD5F19BF1BAF42E2D1F8E7C04639
:102E6000A24E00001E4E0000FFFF01000000FEFF0A
:102E700082B0F0B583B0089209930022D4430028B1
:102E800007D1002905D00D461A4801F0ADF90028F8
:102E900005D0204603B0F0BC02BC02B0084708AB26
:102EA00002931548012739022A4601F0FFF901284B
:102EB000EFDB0546FF2800D3FF25EFF310800190DC
:102EC00072B60C480C492A46FFF77EFD0646FFF70E
:102ED000ABFC084801F088F9002804D007480168D5
:102EE000FA020A430260019880F31088AE42D0D102
:102EF0003446CEE75C092020E006202028901040D0
:102F0000FCB40127FF0706004E4001D4002600E074
:102F10003E00020243001B0E30D03A43FF2B30D05C
:102F20000C024D002D0E29D03C43FF2D29D05B19FA
:102F30004240504042404C4061404C4000B501F09E
:102F40006BFA20BCAE464240504042404C4061408B
:102F50004C4025001400002C01D46400013B803457
:102F600001D3013364087E3B08DDFF2B09D2BC434B
:102F7000200ADB0518433043FCBC70470020FCBC32
:102F80007047FF20C0053043FCBC704700BF70474E
:102F9000024670B50A4392072AD11E4DEE0104C8BD
:102FA00008C9541B9443344017D0D0B2D9B2401A48
:102FB0002106014310D190B299B2401A2104014375
:102FC0000AD110021902000A090A401A210201431B
:102FD00002D1100E190E401A70BD9A42DFD010BAFD
:102FE00019BA884201D9012070BD0020C04370BDCC
:102FF00002780B7801300131002A09D09A4207D1BA
:1030000002780B7801300131002A01D09A42EFD0CA
:10301000D01A70BD01010101FCB40127FF070600B1
:103020004E40F60FF607020243001B0E2DD03A4326
:10303000FF2B2DD00C024D002D0E26D03C43FF2D32
:1030400026D05B1B0020202164085208A242404188
:10305000A24200D3121B013904D0002A01D0520031
:10306000F4D18840384201D14000013B803001D387
:10307000013300E040007F3307DDFF2B08D2400A18
:10308000DB0518433043FCBC70470020FCBC704794
:10309000FF20C0053043FCBC7047704700281DD09E
:1030A000837A002B1CD0002A00D0891CC171427A7F
:1030B000002A1AD0027A9207120F5218164B9A5C05
:1030C000C37A002B00D0524252B201728280016852
:1030D00089180160012A13DB012116E000207047E6
:1030E000002181808171012070470172002181805F
:1030F000817101214172C268521CC260084670474A
:10310000002A01D4002100E002218171C168491C1C
:10311000C16001207047C046924E0000F0B581B0FA
:103120001A491B4C204601F01DFC1A492046FEF7A7
:1031300019FE00250095204629462A462B4601F017
:103140003BFC204629462A4601F0FEFB7D20060175
:10315000204631462A4601F0D5FC0127009720463B
:1031600029462A462B4601F027FC204629463A46A6
:1031700001F0EAFB204631463A4601F0C3FC06481E
:1031800087600321016001B0F0BDC046714D0000B1
:1031900000000940D04E000000110940F0B581B098
:1031A0001A48002404601A4E30680F21090288432F
:1031B00001256F02C0193060301F01680322D3431C
:1031C0000B4003607068A8437060706829028843F0
:1031D0007060100364212A4600F04AFA0D48FFF798
:1031E00005F9306810210843202290433060306890
:1031F0002A0302433260B06B0843B063706BB8437C
:103200007063204600F068FF01B0F0BD08030B407A
:1032100004010B40D04D0000FEB504460025EF43ED
:103220000168481C06D002916669204600F067FDDF
:10323000002802D03D462846FEBD0120000306407E
:103240000196207D000707D56068401EFEF778FFD5
:1032500060690821884360616560A560E560206859
:1032600000F0A0FD0546276001980028E3D006483D
:1032700000688047029800010449081801F0E2FC48
:10328000034800688047D6E770132020E00720201D
:1032900074132020F8B5451C00780023082B32D089
:1032A0002F78C2070CD16A780F241440E41C122C2A
:1032B0000BD102242E57F4B2002E08D4EE1C0EE0DF
:1032C0006D1C4A1C0F7011461AE0AE1C08E02E1D42
:1032D000ED7800957F252C40009DED012C191234CE
:1032E0003D0112095219094DAA420ED0D243002CB9
:1032F00005D08D5C4F1C0D70641E3946F7E73546CE
:1033000040085B1CCAE72846C5E7F8BDFF0F000070
:10331000FEB502930F46194D0024E143184E009765
:103320003740019043422B46BB4101D20C4623E07B
:10333000084602990E405342B54101D204461BE0B3
:10334000134601990B433E431E43029D009E13D03A
:103350002B46334004D401998B1A3346AB4103E02A
:103360000199531A2B46B341044605DB51406E4088
:103370000E43701E864134462046FEBD0000F07F9D
:10338000FFFFFF7FF8B515460E4607461548006853
:103390008047154C2770380A6070A670300AE070BC
:1033A000300C2071300E6071A571280AE071F42094
:1033B000002521462A462B4601F0F0F820462946F2
:1033C00001F0D2F82078617809020818A178090480
:1033D0004018E178090644180448006880472046F0
:1033E000F8BDC046701320207C09202074132020D3
:1033F00070B59AB00D46064615480068804701AC86
:103400002046314601F0BCFB304601F0CEFB0646BB
:103410002018401C294601F0B3FB284601F0C5FBEB
:103420003018831C0B4DF7202946224601F0B6F8D0
:103430000021284601F098F82878697809020818D0
:1034400004B205480068804720461AB070BDC046E7
:10345000701320207C0920207413202010B51549FA
:10346000154801F0C1F915480246283A13680121B0
:103470000C02A34313600246143A00231360021F98
:103480000923136002690A4306239A430261026911
:1034900007231B029A43026102680423134303605B
:1034A000074A1368074C1C43146002680A43026011
:1034B00010BDC046CE4D000000000F4028120F4046
:1034C00028100F408704000070B514460D460646CC
:1034D0001648006880473068401C1FD0012C08D176
:1034E000307DC00605D5B068002802D0316940198A
:1034F000451A304600F003FC7069052149028843F3
:10350000706130682946224601F032F904460848C5
:1035100000688047601C06D0002404E0044800686E
:1035200080470020C443204670BDC0467013202051
:1035300074132020FEB5044600680021425C002A76
:1035400017D03A2A01D0491CF8E74618134D22D06B
:1035500008290F4600DB0827002912D06A463946A1
:1035600003781370002B06D0521C401C491EF7D163
:1035700007E00A4D0FE0022903D3501C491E01F059
:1035800023FB68460021C15501F03CF8002802D019
:10359000711C216005462846FEBDC04698122020B9
:1035A000F8B50446164F174D0E462E4001200094E4
:1035B00064423C46B4411AD31D405442AF4116D335
:1035C0001046009C20433543054311D00020C043E2
:1035D0001C460C400ED4009CA41A0C469C4106DBF1
:1035E0000098504059400143481E81410846F8BDAB
:1035F0000020F8BD009C141B1C468C41F0DAF6E755
:103600000000F07FFFFFFF7FF8B51C4617460E460F
:10361000054601F0BCFA0021012E03DBB04201DBBC
:10362000A919491E002F04D02268531E23602E239F
:1036300013703246824206DD23685F1E2760302702
:103640001F70521EF6E7B04200DB3046012808DB4F
:10365000A9420BD308782268531E23601070491EBC
:10366000F6E72068411E216030210170F8BD7047E7
:10367000F0B5164B1D46083D2E680124A6432E606A
:103680001E6803273F03BE4338403018186018688F
:10369000FF26B043C9B2401818602868204328604C
:1036A0001D68002A0ED00A482102220715431D601A
:1036B00002680A4205D102680A4202D102680A423F
:1036C000F6D0F0BD200785431D60F0BD10010B4012
:1036D00004020B4010B5044601680020491C25D0A7
:1036E0006269D10623D4100605D5002102222046A6
:1036F00001F0A4FA6269900604D4500602D5202095
:10370000024362616168012000290DD1042111404A
:103710000AD1032002400120030200212046FEF7C7
:10372000F5FD014640424841E168216110BD01219B
:1037300089020A43626110BDF8B50446026801259A
:103740001046A843401A102821D366180838B060E4
:103750000836A843371808370E4A0F48072A01D9F8
:1037600010180838009187420DD23878C0070AD166
:10377000384601F013F93068E94308403A680A40D6
:10378000801808303060304600F0DEFF009A2A438F
:103790002260F8BD00080000A809202010B5FFF73E
:1037A000FFFE002801D0002010BD012010BDC04642
:1037B00010B5FFF7F5FE002801DB002010BD012049
:1037C00010BDC04610B5FFF7EBFE002801DD00205C
:1037D00010BD012010BDC04610B5FFF799FD0028AF
:1037E00001DA002010BD012010BDC04610B5FFF762
:1037F0008FFD002801DC002010BD012010BD00005D
:1038000010B500F0EBFD002801D0002010BD012014
:1038100010BDC04610B500F0E1FD002801DB00201E
:1038200010BD012010BDC04610B500F0D7FD002826
:1038300001DD002010BD012010BDC04610B500F014
:1038400073FD002801DA002010BD012010BDC04624
:1038500010B500F069FD002801DC002010BD01203A
:1038600010BD0000F8B514460F4606461248006821
:103870008047124D2C70200A6870AF70380AE870CB
:103880000023F05C5B1C0028FBD1F0202946324667
:1038900000F084FE0021284600F066FE2878697852
:1038A0000902081805B2064800688047002D00D4B8
:1038B00025462846F8BDC046701320207C092020EC
:1038C0007413202000281CD00F4B02221A60BFF373
:1038D0004F8FBFF36F8F0D4B18600D4801600D487F
:1038E00001681B231B030B4303600B480168FF2384
:1038F0001B029943016009480260094802600020E8
:10390000704703207047C04680E100E08C0920200A
:103910008809202048300A4000E400E080E200E00E
:1039200000E100E0B0B582B0012808D81249044691
:10393000085C01A96A4600F013FC002801D002B01F
:10394000B0BD25010D48441901A8017868460278E8
:103950002046FFF7A3FB0028F1D00948411922684F
:103960004251A0888880A0790872E0794872E068A6
:10397000C86002B0B0BDC046D84E0000000920208B
:1039800020092020F8B50446124E30688047002CEC
:1039900008D0204600F0B3F9074611480068804778
:1039A0003846F8BD0C48006800270C4D3C46844260
:1039B000F3DA2968491C0AD030688047284600F0AD
:1039C0009EF9074306480068804703480068641C66
:1039D0001835ECE77013202068132020A811202050
:1039E00074132020F0B581B0002A22D091235B010E
:1039F000C3180F200402901E0090561E0020DF699D
:103A000027421BD00F5C1F60864210D0DF6927421F
:103A100011D00F187D781D60009D854207D0DD69AB
:103A200025420AD0BD781D60C01C8242E7D11046F5
:103A300004E0002002E0401C00E0801C80B201B0E5
:103A4000F0BD000070B514460F4D0B462B40002210
:103A500022600E4EB34215D81E46064312D01E0DEC
:103A600007D100220A4BFEF7DFFB0D403522D2437F
:103A70002B461B0D9A18074BD2182260064A0A40A3
:103A80000649511870BDC046FFFFFF7FFFFFEF7F63
:103A90000000504302FCFFFFFFFF0F800000E03FEB
:103AA000F8B516460C460746104800688047FF2EBA
:103AB00001D9012006020E4D2F70380A6870AE70D1
:103AC000300AE870F22000222946134600F066FD15
:103AD0002846214600F048FD287869780902081830
:103AE00004B20448006880472046F8BD70132020C7
:103AF0007C09202074132020F8B515460C46074693
:103B0000104800688047FF2D01D9012005020E4EA4
:103B10003770380A7070B570280AF070F32031469B
:103B200022462B4600F03AFD0021304600F01CFDF5
:103B3000307871780902081804B204480068804798
:103B40002046F8BD701320207C092020741320200B
:103B5000F0B587B00191064602AD0020E874123539
:103B600037460A243846214600F04AF84443391BB8
:103B7000CA175140891A3031297009376D1E122F2A
:103B80000746EED8002E01D46D1C01E02D202870D0
:103B900002A8441B224614320198294601F04AF833
:103BA0001334204607B0F0BDF0B5FFB086B01C4618
:103BB00015460246A868002801D50620A86023689B
:103BC000039304AB0090019305A80B46FDF78CFE10
:103BD0000646049FAA683946234600F045FD206842
:103BE0000399814201D0012202E028680007C20F38
:103BF000304639462346FFF707FD7FB006B0F0BDDB
:103C00001CB5002922D04C08002900D54942421099
:103C10005440002800D5404200230A00904201D9B8
:103C20005200FBE790425B41904200D3801A9142E0
:103C300001D25208F6E71900002C00D5404264007A
:103C400000D549420200080011001CBD01000020FF
:103C5000FFF775F81CBD000070B510480068022819
:103C60001BD10F490846103805681B200003284067
:103C700013D00A6802430A600A490E68002E0CD06D
:103C800009490C68C00B02D000202146B047A804A7
:103C9000800F02D001202146B04770BD3011404056
:103CA00048300A408C09202088092020F0B581B0D6
:103CB000024638C938C238C938C238C938C204685F
:103CC00042688368C168009107461037E0CFC16938
:103CD000846404464C34ECC4016600994166016A70
:103CE0000022D3438362C362016341638263C26380
:103CF00002644264C1666821425401B0F0BD70B5EF
:103D000004460025EE430068411C18D061686269D2
:103D100093060BD5002909D0A3688B4206D05A1A06
:103D200000F03AFD00280DD4616862692161A1604C
:103D3000500605D5302082430025626100E03546FB
:103D4000284670BD606901218A0202433546F4E7C6
:103D50007CB515460C460646C01731464140081A48
:103D6000009200210A226423FCF740FE304609300D
:103D7000122808D8DF202040502804D02868411E8F
:103D8000296030210170002E01D42B2000E02D206D
:103D900029684A1E2A6008702868411E296004703C
:103DA0007CBD000070B50026F44300281AD40546F7
:103DB000092817D80C4800688047E8000B4A1158BA
:103DC00000290CD015180969686888470446401C0A
:103DD00005D0286841890122914341812E60044821
:103DE00000688047204670BD7013202010132020EB
:103DF00074132020F0B581B0064653689468958905
:103E0000D0890090176950691C432C433C43009BA8
:103E10001843000120430B01F318092464021851D0
:103E20001078527889007118024304480B58BF2457
:103E3000A34322409A180A5001B0F0BD10110000AF
:103E4000F0B581B00E4C0F4D002620462946324673
:103E500000F042F8274620371835384629463246C2
:103E600000F03AF8204600F09BFA384600F098FA45
:103E7000012080030449086000F014FE01B0F0BD89
:103E8000C0082020744D000090320A400F4D104EA3
:103E9000104F01E000F0E3FE0B4804682868201A88
:103EA0000A2802D32C60FDF76FFC3068201A0A281C
:103EB00002D33460FEF7EAFD3868201A0A28E9D3F5
:103EC0003C60FCF7E5FDE5E79013202084132020FB
:103ED000881320208C13202070B5002500281ED0C8
:103EE00000291CD0044668C968C068C968C001259B
:103EF0002806A061501E82412277A068E1689522C1
:103F00005201815020696169815020790026314633
:103F100000F0BEF8002802D00320A07635462846DF
:103F200070BD00000CB54A00520D03231B02FF3385
:103F3000D21A13D31F239A1A12D98E46C90201230B
:103F4000DB071943D1400B2A02D21532D04001437E
:103F50007346002B00D5494208000CBD00200CBD63
:103F60000B000120C007002B00D401380CBD00005D
:103F700070B511221302C218C4580125AC43C450B5
:103F80000C888D7825438C882C43C558084E2E40CC
:103F9000084D25407419C4508879CB790343087AB9
:103FA000184351687E23994318400818506070BD2B
:103FB000E798FDFF18670000B0B505460D4800689A
:103FC00080470D4C2570280A6070F120002521469D
:103FD0002A462B4600F0E2FA2046294600F0C4FAB1
:103FE000207861780902081804B204480068804704
:103FF0002046B0BD701320207C092020741320209F
:10400000B0B504460D48006880470023E05C5B1CA7
:104010000028FBD10A4DF5202946224600F0BEFAC1
:104020000021284600F0A0FA2878697809020818CB
:1040300004B20448006880472046B0BD70132020B9
:104040007C09202074132020B0B50A480A49416039
:104050000A4A51600A4B59600A4C61600A4D696016
:104060000A4901601160196021602960102000F088
:10407000BDFDB0BD00080A40030000B100280A40A1
:104080000008094000080F40008810400100002689
:1040900070B503460320012B18D87D22D20091422F
:1040A00014D80025012B2C4602D0002B0ED1012460
:1040B00007480068461C71430846114600F0B6F8F0
:1040C000311A0448224600F01DFD284670BDC04646
:1040D000081809400000094010B50E490E4A012396
:1040E0005C0590600868204205D10868204202D132
:1040F00008682042F6D010681B0403431360086868
:10410000C00605D40868C00602D40868C006F6D503
:1041100010BDC04604020B4004010B40F8B5164622
:104120000C46054600F03AFD0746204600F036FDF5
:104130003818263000F054FD002807D007460096B6
:1041400006492A46234600F0D9F900E0024F3846D6
:1041500000F056FCF8BDC046584E0000A44D0000CB
:10416000B0B50323012819D8002917D0002A15D08B
:104170000B4B1B68002804D00C24002804D110200D
:1041800003E00F240028FAD00D201D46E54001244D
:1041900025400D70C3402340137000231846B0BD66
:1041A00080330A4070B514460E460546002808D0F4
:1041B000002C0DDD00202E606860032084432C81DC
:1041C00070BD064806493322FFF7A8FF002CF1DC3A
:1041D000044803493422FFF7A1FFEBE7B04E00008B
:1041E0001E4E0000C64E000010B541680A04520C75
:1041F0004B0C934204D00221002907D1084610BD80
:104200000C0C4C40012121400029F7D0012902D19A
:104210000821405E10BD934201D9981A10BD0821B3
:10422000405E991A0918084610BD00001CB50A0026
:1042300017D000230124E407A04200D204009442D6
:1042400001D95200FBE790425B41904200D3801AB3
:10425000914201D25208F6E719000200080011004D
:104260001CBD01000020FEF76AFD1CBD10B50E4903
:1042700002788B185B78401CDB06F9D400212D2ACC
:1042800004D02B2A02D0401E134600E00378303BB6
:10429000092B04D80A244C431919401CF6E72D2A8F
:1042A00000D14942084610BD704C0000B0B586B040
:1042B0001D460C4605924A1E0021012C00D20A46DA
:1042C00003920491029007480090074B05A802AAA8
:1042D0002946FBF7F5FE002C02D0029900220A7055
:1042E00006B0B0BD99460000194A000006B49E22EF
:1042F000002802D404D106BC7047414204D400E037
:104300000100013A4900FCD5803101D3013200E0BF
:104310004900490AD2051143002802D50122D207DB
:104320001143080006BC704740B542004B005E08D0
:10433000164301D006004E4000D4D01A04D201200A
:10434000C90F06D1404204E003D90120C90F00D0B3
:104350004042FF263606B24200D8B34201D90120BE
:10436000404240BD70B50A480A4C84420CD00A4D08
:104370000A4EB54208D02A686968501C127892002B
:10438000A25890470835F4E700BF00BF70BDC04693
:10439000504F0000444F0000584F0000684F00008D
:1043A000B0B5002811D004468068E168952252011A
:1043B0008150206961698150207900252946FFF7E5
:1043C00067FE002803D0032004E00020B0BD0020D9
:1043D00020830125A0762846B0BD000040B54200EC
:1043E0004B005E08164301D006004E4000D4D01AA0
:1043F00004D20120C90F06D1404204E003D90120B4
:10440000C90F00D04042FF263606B24200D8B34260
:1044100000D9012040BD0000FCB4020C0B0CFF24AD
:104420002402FF34204021400C00444315005D432A
:1044300006005E430F005743320C3B0CA818C0180F
:1044400032043B040025A1186841C9186841FCBC2E
:104450007047000006B54100090E7F390DD41F22B8
:10446000511A0CD9864600020122D2071043C840D7
:104470007246002A00D5404206BD002006BD02005B
:104480000120C007002A00D4401E06BD10B5FEF76B
:104490001BF8FFF7D5FC00F0E3FA084C2046E030AB
:1044A00000F096FA204600F093FA7034204600F0AF
:1044B0008FFA00F08FFB0249086010BD0004202035
:1044C0008409202008490020086008490A68FF2361
:1044D0009A430A6001210906054A1160054A1160E4
:1044E000054908707047C04614120F4018E400E0F8
:1044F00080E200E000E100E09413202082B0F8B5F3
:10450000069207930291019006A903910748009033
:10451000074B02A801AAFBF7D3FD019900220A70FC
:1045200004B080BC02BC02B00847C046314A00005B
:104530001B4C000070B50A4C2046FEF76DFE183487
:10454000084D28680126864209DA2168002903D42B
:104550002046FEF761FE2868761C1834F3E770BD2C
:10456000A811202068132020B0B50B4A136800243E
:10457000082C04D015192D790555641CF8E700297D
:1045800009D00C32002B06D010784C1C08705B1E32
:10459000521C2146F6E7B0BDC005202070B50B4C7B
:1045A000236020710020082804D00D5C2618757146
:1045B000401CF8E70D34002B06D0501C11782170F8
:1045C0005B1E641C0246F6E700BF70BDC0052020DC
:1045D0000446094800688047084D6968002901D0F1
:1045E000204688472868002800D080470448006893
:1045F000804700F02BFBC046701320206013202062
:1046000074132020F8B504460078002500280ED049
:1046100000952827074E782F08D0F51928462146FF
:10462000FEF7B6FC002802D02837F4E7009D2846A4
:10463000F8BDC04698122020084809494160094940
:104640000A68FF231B069A4303239B07D2180A60BC
:1046500000218160072101607047C04610E000E042
:104660007F38010020ED00E0F8B51C4615460646EF
:10467000571800F08CFA711E012D0CDB3022012F2F
:1046800002DB874200DCCA5D23685E1E26601A706A
:104690007F1E6D1EF0E7F8BD70B514460D4601464D
:1046A0006A68A86882420BD9161AA64200D3264629
:1046B0002868324600F0BEFA286880192860A86889
:1046C0000019A860204670BD04B40422002802D15D
:1046D000002104BC704701D50832404212021F324B
:1046E0000100521E4900FCD30805090B12051143B5
:1046F00004BC70471CB5019007480068804701A8BA
:10470000FEF718FF016A01988847044603480068CD
:10471000804720461CBDC046701320207413202003
:1047200002B49E21002805D401D102BC7047013992
:104730004000FCD5803001D3013100E04000400A48
:10474000C905084302BC7047B0B501680122914316
:10475000064B1C68002C06D0256895438D4202D27A
:1047600008342346F5E784601860B0BD9409202022
:10477000B0B503460020C043002B0AD4092B08D84B
:10478000DB00044CE558002D03D0ED69E0184068CB
:10479000A847B0BD10132020B0B503460020C04389
:1047A000002B0AD4092B08D8DB00044CE558002D57
:1047B00003D0AD69E0184068A847B0BD10132020B1
:1047C000084880F3088800BF00BF00F046FA0028C0
:1047D00001D0FFF7C7FD002000F0CBF90120FFF763
:1047E000F7FEC0460080202070B501221203831816
:1047F0000C785D680C26B54334402C195C60497810
:1048000083580724A34321405918815070BD0028C4
:104810000ED04A1E9141C1720121817200220260B4
:1048200082808271C27102724272C2600846704711
:104830000020704710B500F035F80424002801D09E
:10484000204610BDFEF780F90028F9D1FFF73AFEA7
:10485000411E88418400204610BD80B5FFF7F4FB5F
:10486000FDF702FBFEF79AFCFEF758FCFEF7F6FD9B
:10487000FEF766FA00F0D6F9FFF7DEFE80BD000015
:1048800030B514004C4325001C0044436419050056
:1048900010002900FFF7C0FD001904000D002100E1
:1048A000280030BD06490020086006490A68FF2339
:1048B0001B069A430123DB07D2180A607047C046E3
:1048C0007813202020ED00E0B0B504460020002B36
:1048D00008D0D2B20D782570954204D0641C491CD2
:1048E0005B1EF7D1B0BD601CB0BD0000054800687C
:1048F0008007C00F044902220A60BFF34F8FBFF345
:104900006F8F704700E100E080E100E018B52023E0
:104910009B1A04D8010000205B42994004E0040087
:104920009140DC402143904018BD80B5FFF795FFD2
:10493000FFF780FF002800D0FEE700F0F3F8FDF756
:104940008BFBFFF7A3FD80BD10B592008018044AD1
:1049500083580724A404A34321405918815010BD53
:104960003018000010B50122120383180C789C60E7
:104970004B7883508978014A815010BD0C1100009A
:1049800004480168491C016003480168491C016032
:104990007047C0467813202090132020054A1368E2
:1049A000002B06D011461A4608328342F7D18068A0
:1049B000086070479409202010B5029CA4000019DB
:1049C00011431943014A815010BDC04650180000E0
:1049D0000021CA43036A8262C26203634363816344
:1049E000C16301644164704780B5034A03480021F4
:1049F000FFF700FA80BDC046404E000000A04240D4
:104A0000044C30342146FDF7ABFA2046FEF7BAFFDE
:104A100000F01CF9A81120204B688A689A4204D241
:104A20000A68531C0B6010708A68521C8A607047B9
:104A3000B0B514460D460146286800F0FBF828681A
:104A4000001928602046B0BD80B54001034A101807
:104A5000FDF780FE411E884180BDC046C008202071
:104A600010B5044C2046FFF79BFC20342046FFF78E
:104A700097FC10BDC008202042004B000020FF2101
:104A800009068A4200D88B4200D9012070470000F5
:104A900040B584B002AE0096FEF700F9029A039B7F
:104AA00004B040BD0348016801220A4302600020AF
:104AB0007047C04604180940C9B202788A4204D03F
:104AC000002A01D0401CF8E70020704710B50122F1
:104AD000120383180C789C604978815010BD10B582
:104AE00000239A4203D0CC5CC4545B1CF9E710BD90
:104AF00080B50B4603214258C11D184600F09AF8B4
:104B000080BD000092008018014A81507047C04665
:104B100010180000002802D00148022101607047EF
:104B200000E100E0024800210160416081607047BF
:104B30006809202000214258091D002AFBD1081FC6
:104B40008010704780B50A4603214158104600F096
:104B50003BF880BD28680121C943084022680A400B
:104B6000704700000B4611461A4680B500F024F845
:104B700080BD80B5FFF7D9FEFFF788F9002080BD22
:104B800000228B5C8354521C002BFAD17047002109
:104B9000425C491C002AFBD1481E70470021425C40
:104BA000491C002AFBD1481E70470021425C491C69
:104BB000002AFBD1481E704700239A4202D0C154FC
:104BC0005B1CFAE7704700000A46002180B5FFF73A
:104BD000F3FF80BD014800687047C046781320206D
:104BE00080B501460820FCF7ADFF80BD811E091F7E
:104BF00000BFFCD2704702460B4620462946FFE71D
:104C000082B00094014C019410BD00BFF515000066
:104C10000022304639462B4670470A68531C0B6009
:104C20001070704780B5FFF7DFFE80BD0048704709
:104C30006C13202080B5FFF752FF80BD80B5FEF7D2
:104C400043FC80BD80B5FFF755FD80BDFEF79EF9A2
:104C5000FEE741667047B3E570470120704730BFFB
:104C6000704700000000000000000000000000008D
:104C70000080808080808080808090909090908064
:104C80008080808080808080808080808080808024
:104C90008018040404040404040404040404040444
:104CA00004020202020202020202020404040404D8
:104CB0000404434343434343414141414141414152
:104CC00041414141414141414141414104040404C8
:104CD00004042323232323232121212121212121F2
:104CE0002121212121212121212121210404040428
:104CF0008000000000000000000000000000000034
:104D000000000000000000000000000000000000A3
:104D10000000000000000000000000000000000093
:104D20000000000000000000000000000000000083
:104D30000000000000000000000000000000000073
:104D40000000000000000000000000000000000063
:104D50000000000000000000000000000000000053
:104D60000000000000000000000000000000000043
:104D700000080000000000000000000000200A40C1
:104D80000001000000200A400002000000000000B6
:104D90000100000000200A400004000000200A403A
:104DA00000080000417373657274696F6E2066615C
:104DB000696C65642C20282573292C2066696C6534
:104DC0002025732C206C696E652025640A0008007C
:104DD00001000000000000000000000000000000D2
:104DE00000000000100000000001000003000000AF
:104DF000000000003400C44125752C25752C257554
:104E00002C25642C25642C25642C25642C25642CED
:104E100025642C25642C25642C25640D0A002E2E77
:104E20005C557365725C41726974686D6574696321
:104E30005C72696E676275666665722E6300080053
:104E40001100000000000000000000000000000051
:104E500000000000000003006D616C6C6F63206651
:104E600061696C656420696E20617373657274009A
:104E70003031323334353637383941424344454690
:104E80000030313233343536373839616263646526
:104E900066000001FF00FF000001010000FF00FFAD
:104EA0000100726220213D2052545F4E554C4C004F
:104EB000726220213D204E554C4C0000000018002D
:104EC00000000030000073697A65203E2030000049
:104ED000D0070000000000000001000000000000FA
:104EE000005500000F0112014001018F012202C094
:104EF0001502030F01240440FF000004BF02017FDC
:104F00007EFE0EF7020065380000B9FF3F0000A1E9
:104F10003A0000F9F6003085330F70400000F13C94
:104F20000070001F3E98122020007515B16800F136
:104F300014BF02079F1E031C046F360033000B9F33
:104F40000FFFF00095320000F14A0000454B0000D1
:104F500002000000A6090000E04E0000A811202079
:084F6000504F0000000020206A
:04000003000047C1F1
:00000001FF
